:10000000FDC0000018C1000016C1000014C10000AE
:1000100012C1000010C100000EC100000CC10000A0
:100020000AC1000008C1000006C1000004C10000B0
:1000300002C1000000C10000FEC00000FCC00000C2
:10004000FAC00000F8C00000F6C00000F4C00000D4
:10005000F2C00000F0C00000EEC00000ECC00000E4
:10006000EAC00000E8C00000E6C00000E4C00000F4
:10007000E2C00000E0C00000DEC00000DCC0000004
:10008000DAC00000D8C00000D6C00000D4C0000014
:10009000D2C00000D0C00000CEC00000CCC0000024
:1000A000CAC00000C8C00000C6C00000C4C0000034
:1000B000C2C00000C0C00000BEC00000BCC0000044
:1000C000BAC00000B8C00000B6C00000B4C0000054
:1000D000B2C00000B0C00000AEC00000ACC0000064
:1000E000AAC00000A8C00000A6C00000A4C0000074
:1000F000A2C00000A0C000009EC000009CC0000084
:100100009AC0000098C0000096C0000094C0000093
:1001100092C0000090C000008EC000008CC00000A3
:100120008AC0000088C0000086C0000084C00000B3
:1001300082C0000080C000007EC000007CC00000C3
:100140007AC0000078C0000076C0000074C00000D3
:1001500072C0000070C000006EC000006CC00000E3
:100160006AC0000068C0000066C0000064C00000F3
:1001700062C0000060C000005EC000005CC0000003
:100180005AC0000058C0000056C0000054C0000013
:1001900052C0000050C000004EC000004CC0000023
:1001A0004AC0000048C0000046C0000044C0000033
:1001B00042C0000040C000003EC000003CC0000043
:1001C0003AC0000038C0000036C0000034C0000053
:1001D00032C0000030C000002EC000002CC0000063
:1001E0002AC0000028C0000026C0000024C0000073
:1001F00022C000000C94370D0C94E80D11241FBE92
:10020000CFEFD7E2DEBFCDBF10E2A0E0B0E2E8E47E
:10021000FEE102C005900D92A239B107D9F723E2A1
:10022000A4E9B0E201C01D92AB30B207E1F70E9431
:10023000C50E0C94220FE4CECF93DF9300D000D0F4
:10024000CDB7DEB78FEF80937000809371008093FD
:100250007200809373008093740080937500809384
:1002600076006CE170E082E035D78A836DE170E062
:1002700082E030D7898389819A81019621F480E4D4
:1002800093E289839A8389819A818B839C83E0E6B8
:10029000F0E082838C818383E0E5F0E0818184FD5E
:1002A0000BC08FB7F8949CE0958390819061908308
:1002B0008FBF818184FFFDCF64E080E490E004D7AC
:1002C0002496CDBFDEBFDF91CF9108952FB7F8946C
:1002D000FC01E059FF4F60958081682360832FBF48
:1002E0000895863011F468E101C060E0E0E5F0E0D7
:1002F000818181FD24C08FB7F894908192609083B2
:100300008FBF818181FFFDCF8FB7F894A0E5B0E06A
:1003100016969C911697997F16969C931697E0E6F1
:10032000F0E090E895839BEB968316969C91169748
:10033000946016969C939081916090838FBF6360C8
:1003400084E490E0C1D660E480E090E0BFCFCF933A
:10035000DF93FC01709620E030E0C62FD0E0DE0194
:10036000022E02C0B595A7950A94E2F7A0FD50832E
:100370002F5F3F4F31962830310589F740FF0AC083
:1003800041FF03C0FC01658302C0FC016683FC01E0
:10039000618302C0FC016283DF91CF910895809157
:1003A0009D20815080939D20089580E0089580E0F5
:1003B00008958091FB228823DCF480768032E9F571
:1003C0008091FC228132D9F5809101239091022302
:1003D0000797B9F58AEA90E2809303239093042368
:1003E00087E090E0809305239093062381E00895B1
:1003F0008076803241F58091FC22803221F0823279
:1004000021F581E0089580910123909102230797BF
:10041000F1F489E292E080930723909308238AEA1B
:1004200090E2809303239093042387E090E08093ED
:1004300005239093062381E0089580E0089580E0ED
:10044000089580E0089580E0089580E0089580E0B8
:1004500008950895FF920F931F93CF93DF93809198
:10046000952081119CC00E941C0C882351F0C091E2
:10047000B520D091B6200E942B0CC817D90759F48B
:100480008EC0C091B520D091B6200E94240CC81710
:10049000D90709F484C0DFB7F894C0919620EC2FF7
:1004A000F0E0EE0FFF1FEF54FF4D80819181892B0B
:1004B00009F58091BB209091BC2001968093BB20D0
:1004C0009093BC200E941C0C811107C08091BB201E
:1004D0009091BC208436910558F00E941C0C882312
:1004E00049F08091BB209091BC208032934010F461
:1004F000DFBF55C01092BB201092BC208091942089
:10050000811106C081E0C11180E08093962004C073
:1005100081E0C11180E0C82F81E080939520DFBF8A
:10052000D0E0FE01EE0FFF1FEF54FF4DFF24F394C8
:10053000808191818034910509F4F12CFF2091F0A4
:100540000E941C0C882339F00E942B0C8093B5204C
:100550009093B6200BC00E94240C8093B5209093FA
:10056000B62004C01092B5201092B620FE01EE0F06
:10057000FF1FEF54FF4D20813181AE0100245695BD
:1005800047950794569547950794542F402D42540C
:100590005F4D07ED12E06F2D81E80E94800CDF9126
:1005A000CF911F910F91FF90089580E053CF892B39
:1005B000A9F42091962081E090E0222311F080E0C0
:1005C00090E0FC01EE0FFF1FEF54FF4D10821182EF
:1005D000109294201092952080E03CCF0895809155
:1005E0009C20815080939C2080919C200E94CE0E64
:1005F00010929B20089510929D2010929E201092A0
:100600009F2081EA8093A02080E28093A120109215
:10061000A2201092A3201092A4201092A52082E084
:1006200090E08093A6209093A7201092A82010928B
:10063000A92080E092ECA1E0B0E08093AA20909302
:10064000AB20A093AC20B093AD201092AE201092BE
:10065000AF2088E08093B0200E94CA0E882339F032
:1006600080919D208F5F80939D2081E0089580E0A0
:1006700008954FB7F8948091982090919920E09137
:100680009A20F0E0EE0FFF1FE954FF4D20813181E9
:10069000281B390B4FBF822F932F0895EADF21E0EB
:1006A000892B09F420E0822F08950F931F93CF9395
:1006B000DF934FB7F89450919A2080919720811141
:1006C00010C02091982030919920C52FD0E0FE01D4
:1006D000EE0FFF1FE954FF4D8081918128173907E4
:1006E00018F44FBF80E023C01092982010929920F8
:1006F00081E0511180E080939A2081E080939720DF
:100700004FBF80E0CBDFAE0100245695479507949C
:10071000569547950794542F402D425C5E4D0CE949
:1007200013E020E430E061E082E00E94800CDF9181
:10073000CF911F910F9108950F931F93A42F892B91
:1007400049F580919A20E1E08111E0E061157105A1
:10075000B1F4F0E00024F695E7950794F695E79557
:100760000794FE2FE02DAF01425C5E4D0CE913E0D3
:1007700020E430E061E08A2F0E94800C0BC0F0E0A2
:10078000EE0FFF1FE954FF4D608371831092972095
:1007900080E08BDF1F910F91089510929C201092A2
:1007A000952010929420109296201092B1201092D1
:1007B000B2201092B3201092B4201092B520109263
:1007C000B62080E047DE1092972010929A20109277
:1007D000B7201092B820109298201092992080E0B3
:1007E00064DF882361F080919C208F5F80939C2040
:1007F00080919C20813029F480939B20089580E093
:10080000089581E008955FB7F89420919620E22F33
:10081000F0E0EE0FFF1FEF54FF4D8081918141E02A
:10082000211140E0E42FF0E0EE0FFF1FEF54FF4DE9
:10083000208131818034910589F460919520611186
:100840000DC060919420611109C081E080939420D3
:100850004093962020E430E080E090E05FBF820F7C
:10086000931F20E830E0281B390B822F932F089527
:10087000CADF21E0892B09F420E0822F08951F931D
:10088000CF93DF93EB0111E08091B020893009F024
:1008900010E080E0EDDF811107C080919B20811185
:1008A000F8CF20E030E028C04FB7F8942091962090
:1008B00030E0F901EE0FFF1FEF54FF4D8081918171
:1008C000D9010024B695A7950794B695A7950794E6
:1008D000BA2FA02DA80FB91FA254BF4DCC930196DB
:1008E000808391834FBF112329F0CD2FDD0FDD0BC6
:1008F00010E0CFCF21E030E0822F932FDF91CF9116
:100900001F910895BC0180E0BACFE091C121F09120
:10091000C2210190F081E02D228133812E0F3F1FF3
:10092000822F932F08951F93CF93DF93EC01162FFF
:10093000ECDF2881FE01E20FF11DE817F907A0F4B2
:1009400021812430A1F0211306C016C0218124305A
:1009500089F0211789F02081E20FF11DE817F907CE
:10096000A8F3E0E0F0E008C0E0E0F0E005C0E0E07F
:10097000F0E002C0E0E0F0E08E2F9F2FDF91CF91FA
:100980001F9108950F931F93CF93DF93182F062F76
:100990008091C021882369F1E091C121F091C221A9
:1009A000C081D1818C81181730F5C093BE21D093BE
:1009B000BF21ABDF9C01C817D907F8F499819430A7
:1009C00061F49A81911309C08B81801306C0C09392
:1009D000BE21D093BF2181E011C09881C90FD11DE4
:1009E000C217D30758F3C093BE21D093BF2180E034
:1009F00005C080E003C080E001C080E0DF91CF91BE
:100A00001F910F9108958091FD228F7717C71F9333
:100A1000CF93DF93182FB6DF882341F1C091BE2119
:100A2000D091BF2165E0CE017EDFEC01009741F05F
:100A30004C815D816B818A811AD78111F3CF17C0F8
:100A4000A091C121B091C221812F90E0880F991F00
:100A50001296ED91FC911397E80FF91F0190F08128
:100A6000E02D0190F081E02D099501C080E0DF913B
:100A7000CF911F9108950F931F93CF93DF93C82FAA
:100A800060E080DF882381F1A091C121B091C22173
:100A9000EC2FF0E0EE0FFF1F12962D913C91139773
:100AA000E20FF31F00811181D8011696ED91FC91A0
:100AB00017970995682F8C2F65DF8823B9F0C091AF
:100AC000BE21D091BF2165E0CE012DDFEC01009762
:100AD00019F08A81C3D7F7CFD8011296ED91FC9116
:100AE0001397099581E003C080E001C080E0DF91A9
:100AF000CF911F910F9108952DC60895CF938091A6
:100B0000C0218823C1F0E091C121F091C221019060
:100B1000F081E02D8481882371F0C0E08C2FABDF61
:100B2000CF5FE091C121F091C2210190F081E02DD1
:100B30008481C81798F31092C02181E090E08093DF
:100B4000C3219093C421CF910895CF938091C02168
:100B5000882341F1E091C121F091C221A081B181AE
:100B600014968C918823F1F0C0E08C2F90E0880FD0
:100B7000991F0280F381E02DE80FF91F0190F081A9
:100B8000E02D0084F185E02D309709F00995CF5FC5
:100B9000E091C121F091C221A081B18114968C9184
:100BA000C81718F3CF910895FF920F931F93CF9317
:100BB000DF931092052310920623109207231092C0
:100BC00008231092092310920A232091FB2222234A
:100BD0000CF06AC28091012390910223009709F0E2
:100BE00068C25AC22F7109F094C03091FC2236308D
:100BF00081F0383009F482C031118BC0029739F48A
:100C000062E070E083EC91E229D681E0CEC180E021
:100C1000CCC12091FD223091FE22832F9927823072
:100C2000910579F08330910569F1019709F05EC073
:100C30008091142090911520DC016C9170E00ED60B
:100C400044C0E0911420F09115208189281708F004
:100C50004FC0C9019927880F991F880F991FE091EC
:100C60001620F0911720E80FF91F80819181FC0177
:100C700062817381F3D5E0910323F091042382E034
:100C8000818323C033272115310521F0233031051D
:100C900089F506C064E070E086E790E2DFD515C014
:100CA000AAE8B0E2ECE7F0E281E990E22D9120833E
:100CB00011823296A817B907C9F780E180937A208C
:100CC00060E170E08AE790E2C9D5809101239091BC
:100CD000022320910523309106238217930760F4A5
:100CE000809305239093062381E05FC180E05DC17E
:100CF00080E05BC180E059C181E057C1019739F4C0
:100D000061E070E080EC91E2A9D581E04EC180E025
:100D10004CC1213009F040C03091FC223A30E1F55D
:100D2000019791F58091C021882381F1C091FF2224
:100D3000D09100238C2F0091C1211091C221D801A4
:100D4000ED91FC919481C91718F560E01BDE8823B2
:100D500009F1CE019927880F991FD8011296ED91BC
:100D6000FC911397E80FF91F0190F081E02D868127
:100D70009781FC0109958093C52161E070E085ECC5
:100D800091E26CD581E011C180E00FC180E00DC11E
:100D900080E00BC180E009C1223009F008C1209138
:100DA000FC222111FDC0029771F48091FF2288D5A9
:100DB0008093C6211092C72162E070E086EC91E238
:100DC0004DD581E0F2C080E0F0C02F7109F092C0F3
:100DD0008091FC22833009F4E5C020F4813009F0D1
:100DE00089C016C0853021F0893009F083C02BC03E
:100DF0008091012390910223892B41F483E095E0B7
:100E0000809307239093082381E0CFC080E0CDC07A
:100E10008091012390910223892B89F48091FD22F6
:100E20009091FE22019769F48091C3219091C42191
:100E30008D7F8093C3219093C42181E0B6C080E070
:100E4000B4C080E0B2C08091012390910223892B2D
:100E500009F044C0F6D4882309F442C02091FD2251
:100E60003091FE223327E0911420F09115208189E2
:100E700090E082179307B0F141DE8091FD229091BE
:100E8000FE228093C021882379F199270197880F4A
:100E9000991F880F991FE0911620F0911720E80FF5
:100EA000F91FE093C121F093C2210190F081E02D60
:100EB00084818823D9F0C0E060E08C2FA8DD8823EE
:100EC000B9F0CF5FE091C121F091C2210190F08192
:100ED000E02D8481C81780F381E067C080E065C0A1
:100EE00080E063C080E061C081E05FC081E05DC000
:100EF00080E05BC0213001F58091FC228B30E1F471
:100F00008091012390910223892B81F48091C0214B
:100F1000882371F0C091FF22D091FD228C2FABDD90
:100F2000882341F06D2F8C2F72DD3FC080E03DC0E3
:100F300080E03BC080E039C02230C9F58091FC22BE
:100F4000813019F0833081F514C080910123909194
:100F50000223892B51F48091FD229091FE22892B4E
:100F600031F48091FF22B3D420C080E01EC080E025
:100F70001CC08091012390910223892B69F48091F8
:100F8000FD229091FE22892B49F4CFEFD2E2888195
:100F90002DD5888153D509C080E007C080E005C009
:100FA00080E003C080E001C080E0811177C08091C3
:100FB000FB228F71813071F58091C021882351F11E
:100FC0000091FF2210910023F02EC091C121D091F9
:100FD000C221E881F98184810817E0F460E0802F64
:100FE000D1DC8823B9F011279801220F331FEA8141
:100FF000FB81E20FF31FC081D181EE81FF81099552
:10100000682F8F2DBFDC882329F0EC81FD810995A5
:10101000811146C08091FB228F71823009F042C05D
:101020008091C021882381F1E091C121F091C221FA
:10103000A081B18114968C91882341F110E0212F79
:1010400030E0220F331F0280F381E02DE20FF31F07
:10105000C081D181EE81FF810995682F812F92DCBB
:101060008823B1F0EC81FD810995811113C01F5FC8
:10107000E091C121F091C221A081B18114968C919F
:101080001817E8F280E01AC080E018C080E016C0AF
:1010900080E014C081E012C080E010C081E00EC08A
:1010A00081E00CC080E00AC0822F807609F07FCFFB
:1010B0008CCE322F307609F07ACF94CDDF91CF915C
:1010C0001F910F91FF9008951BBEFC0128ED24BFD6
:1010D000608308954091CA01E62FF72F8093CA01DB
:1010E00084914093CA010895811118C090912C22D7
:1010F000992389F09FB7F894E6EFF2E2208121501E
:1011000020839FBF08C09FB7F894E6EFF2E22081EA
:101110002F5F20839FBF80932C22089590912C22D3
:10112000992389F3F8CF282F2F7030E0220F331F37
:10113000992787FD90958827990F881F9927280F51
:10114000391F220F331F220F331F220F331F2C5240
:101150003E4D822F932F08950F931F93CF93DF93CC
:101160006370613039F018F4C0E4D0E005C0C0E825
:10117000D0E002C0C0ECD0E040385105F9F050F4A6
:1011800040325105A9F040345105A9F040315105D4
:1011900061F420C0411592E05907B1F04F3F93E050
:1011A0005907A9F04115514061F000E010E014C06A
:1011B00002E010E011C003E010E00EC004E010E017
:1011C0000BC005E010E008C006E010E005C007E035
:1011D00010E002C001E010E0A6DFFC01118286E011
:1011E0008083C02BC183DF91CF911F910F91089510
:1011F0000F93E8ECF4E080818F7D808380818F7D88
:101200008083ECEDF1E202E005931092DE21109272
:10121000DF2100E2069300E40693E4EDF1E200E250
:10122000069300E40693109207231092082310926D
:10123000092310920A23109205231092062310927C
:10124000ED221092EE220F9108950F9385E090E029
:101250008093ED229093EE22EDEDF1E204E0059310
:10126000E5EDF1E204E005930F9108950F9383E01B
:1012700090E08093ED229093EE221092DE21109266
:10128000DF21ECEDF1E202E006930F9108950F9358
:1012900084E090E08093ED229093EE22E4EDF1E281
:1012A00002E006930F910895E0910723F09108233F
:1012B000309709F0099508950F93CF93DF938091AC
:1012C000ED229091EE22039719F4EEDF91DF5AC0E0
:1012D0008091F1229091F222C0910523D0910623B2
:1012E000C81BD90B41F52091EF223091F022820FDB
:1012F000931F8093EF229093F0222091012330914D
:1013000002238217930721F08091F322882311F0A2
:10131000BEDF38C0E0910923F0910A23309799F09D
:101320000995882381F01092F1221092F222C09147
:101330000523D0910623C034D10528F01092F32262
:10134000C0E4D0E003C081E08093F322C093DE21AB
:10135000D093DF218091F1229091F22220910323FA
:1013600030910423280F391F2093E0213093E1218D
:10137000C80FD91FC093F122D093F222ECEDF1E215
:1013800002E00693DF91CF910F910895FC018181D6
:1013900087708430A9F030F4823061F070F48130CD
:1013A00031F41AC0863091F070F0873091F028E067
:1013B00030E014C020E230E011C020E430E00EC084
:1013C00020E830E00BC020E031E008C020E032E04F
:1013D00005C02FEF33E002C020E130E0822F932FD1
:1013E0000895282F2F7030E0220F331F992787FD93
:1013F00090958827990F881F9927280F391F225009
:101400003109C901880F991F880F991F880F991FEB
:10141000280F391F285F3D4D822F932F08950F937A
:101420008091CC0480FF6CC081E08093CC04E4ED1B
:10143000F1E200E80693ECEDF1E200E80693809318
:10144000CA04E4EDF1E200E106938091ED2290916F
:10145000EE22009729F00397029708F425DFC8DEF3
:101460008091D6219091D721089709F04BC088E050
:10147000EDEAF2E2ABEFB2E201900D928A95E1F76C
:10148000E8ECF4E0808180628083808180628083E8
:101490008BDB811103C0D9DE81E035C08091FB2256
:1014A00088238CF41092EF221092F0221092F122F5
:1014B0001092F22282E090E08093ED229093EE224F
:1014C000FBDE81E020C08091012390910223892BD3
:1014D00019F4CCDE81E017C01092EF221092F022B6
:1014E0001092F1221092F22281E090E08093ED229E
:1014F0009093EE22E4EDF1E202E0069381E003C076
:1015000080E001C081E00F910895BF92CF92DF92F9
:10151000EF92FF920F931F93CF93DF93B82E61DF6B
:10152000EC018B2D00DE7C0131DF6C01BB200CF067
:101530005DC0D70116962D913C9117978D819E81A4
:10154000280F391F2D833E838B819C8128173907F3
:1015500009F43AC0FC01E21BF30B9F012115F4E0F2
:101560003F0738F02FEF33E0C901B6014ED4281BF6
:10157000390B888181FF0BC0C901B60146D441E017
:1015800050E0892B11F040E050E0CA0102C080E039
:1015900090E0988180FB91F99883D70116961D926F
:1015A0001C92179712962D933C93139729813A8199
:1015B0008D819E81820F931F14968D939C93159716
:1015C000F70102E0069399C0888181FF87C08D7F73
:1015D0008883D70116961D921C92179712961D921A
:1015E0001C921397F70102E0069387C0D701129669
:1015F0000D911C911397888182FF17C029813A8130
:101600008D819E81280F391F8B819C81B601FDD36E
:10161000B0E4BB9EF0011124E351FE4D482F592F39
:101620006E2F7F2F822F932F04D42D813E81200F88
:10163000311F2D833E83EB81FC81E217F30710F409
:10164000ED83FE83D70116962D913C9117972017B5
:10165000310709F043C08D819E81E817F90709F42D
:101660003DC0E81BF90BE115B4E0FB0740F0EFEFDC
:10167000F3E0CF01B601C9D3E81BF90B05C0CF01D8
:10168000B601C3D3E81BF90BD70112961D921C9229
:101690001397EC15FD0578F4888184608883B0E4A5
:1016A000BB9EC001112483519E4DF7018483958315
:1016B000C682D7820FC029813A818D819E81820F97
:1016C000931FD70114968D939C9315971696ED93BF
:1016D000FC931797F70102E006930FC0888180FF03
:1016E0000CC08E7F8883EF81F885309731F06D8153
:1016F0007E814B2D80E090E00995DF91CF911F9185
:101700000F91FF90EF90DF90CF90BF900895CF930F
:10171000CFB7F89481E0E8DCEAECF4E080E4808381
:1017200080E28083E1ECF4E0808181608083A9EC39
:10173000B4E08C9182608C93E8ECF4E0808180646A
:1017400080838C9181608C93808180688083CFBFFF
:10175000CF910895CF93DF93C0E6D0E0188280E365
:101760000E947101E0ECF4E080818064808381E07C
:101770008883CFB7F8941092D5211092DD21109272
:10178000E5211092ED211092F5211092FD21E8E063
:10179000F2E280818E7F8083E1E1F2E280818E7FC0
:1017A0008083EAE1F2E280818E7F8083E3E2F2E2ED
:1017B00080818E7F80836AE170E082E08BDC8F3FE6
:1017C00019F08093FA0403C08FE18093FA046BE16F
:1017D00070E082E07FDC8F3F19F08093FB0403C050
:1017E0008FE18093FB04E0ECF4E0808182608083F1
:1017F00080818068808380818061808384ED91E234
:10180000868397838081806280838FEF8093C50475
:10181000E8ECF4E080818160808310922C228FB705
:10182000F894EAEFF2E290819F5F90838FBF6FDFC1
:10183000CFBFDF91CF91089580E008958093C304D6
:1018400008958091C30408952091042230910522C7
:10185000822F932F089580E090E0089580930323D2
:101860009093042360930523709306230895EF92C9
:10187000FF920F931F93CF93DF93F82EE62E8A01EA
:1018800052DCEC018981807C89F4A8016E2D8F2DBA
:1018900063DC8981807C803C21F48981877087307A
:1018A00039F089818062898381E003C080E001C0D2
:1018B00081E0DF91CF911F910F91FF90EF900895FC
:1018C00032DCFC01818182FB882780F90895CF9367
:1018D000C82F29DCFC01818182FF0FC081818B7FB1
:1018E00081838C2F7EDDFC01808180FF06C08E7F8E
:1018F00080830780F085E02D099581E0CF910895E0
:101900008F929F92AF92BF92CF92DF92EF92FF920F
:101910000F931F93CF93DF93982E862E5A01690160
:1019200060DD7C01892DFFDBEC018981807C09F47D
:101930004DC08981807C803C19F0898182FD48C03E
:101940008FB7F894F701908190FF03C08FBF80E0BC
:1019500040C0F7019081916090838FBFA182B282D5
:10196000C382D4821582168207831087811008C033
:1019700021E030E0C114D10429F020E030E002C0C1
:1019800021E030E0F701808120FB81F98B7F8083AB
:1019900099201CF41E821F8215C08981807C803CA6
:1019A00069F4CE01F3DCBC01C6012FD2892B31F0E2
:1019B000F70180818E7F808380E00BC01A821B82BA
:1019C0001E821F82892DA1DD81E003C080E001C05D
:1019D00080E0DF91CF911F910F91FF90EF90DF900A
:1019E000CF90BF90AF909F908F9008950F931F93CB
:1019F000CF93DF93182F97DBEC01812FF2DCDC0112
:101A0000FE0102E005938C9180FF13C08E7F8C93C2
:101A10001796ED91FC911897309759F011231CF40B
:101A20006E817F8102C06A817B81412F81E090E0DD
:101A30000995DF91CF911F910F9108950F93CF9347
:101A4000C82F71DBFC0181818460818301E00693F2
:101A50008C2FCCDF81E0CF910F910895CF93C82FC9
:101A6000C5DF8C2F60DBFC011182CF9108951F929E
:101A70000F920FB60F9211240F932F933F934F9312
:101A80005F936F937F938F939F93AF93BF93EF93E6
:101A9000FF938091CB0488232CF480E88093CA04C0
:101AA00054D884C08091CB0482FF23C084E080930B
:101AB000CA048091DC2186FF79C08091CC0481FD2D
:101AC00075C0ADDC811172C08091ED229091EE2243
:101AD0008130910511F4CADB69C0049709F066C032
:101AE000EDEDF1E204E00593E5EDF1E204E00593AC
:101AF0005DC08091CB0481FF54C082E08093CA0412
:101B00008091D42186FF52C08091CC0481FD4EC0CB
:101B100086DC81114BC08091ED229091EE228230C3
:101B2000910511F4B4DB42C0039709F03FC0EDED1D
:101B3000F1E204E00593E5EDF1E204E0059336C03F
:101B400080E18093CA0481E051DF81E84FDF0E9489
:101B50007E051092C30440E450E060E080E0FCDACF
:101B600040E450E060E080E8F7DA8DEA92E28093AA
:101B7000D8219093D9213CDB19C08091CB0486FFFA
:101B800006C080E48093CA0480E0AEDA0FC0809182
:101B9000CB0485FF0BC080E28093CA0481E0A4DA05
:101BA00005C08091CB0484FDCBCFE7CFFF91EF91AF
:101BB000BF91AF919F918F917F916F915F914F9165
:101BC0003F912F910F910F900FBE0F901F9018957E
:101BD0001F920F920FB60F9211240F931F932F9302
:101BE0003F934F935F936F937F938F939F93AF93A5
:101BF000BF93CF93DF93EF93FF938091CC0481FD4C
:101C000003C00DDC8111ACC082E08093CC048091D4
:101C1000C5048195880FE4EDF1E2E81BF10920810C
:101C20003181245D31423695279536952795369535
:101C30002795822F869520FF02C0C0E801C0C0E032
:101C4000C80F8C2F70DAFC01808185FF89C000E20B
:101C50000693C1117FC08091ED229091EE220497EE
:101C600019F422DBC5DA7CC0C091D621D091D721EE
:101C700080910523909106230091F1221091F22288
:101C800098012C0F3D1F8217930718F4EC01C01B1D
:101C9000D10B2091032330910423200F311F8DEAB3
:101CA00092E24C2F5D2F682F792F822F932FC1D076
:101CB0000C0F1D1F0093F1221093F222C034D105A6
:101CC00069F48091EF229091F022800F911F209172
:101CD0000123309102238217930788F00093052394
:101CE00010930623E0910923F0910A23309729F0FD
:101CF0000995811102C0A9DA33C0B8DA31C08091E8
:101D000005239091062308171907F9F4E091092398
:101D1000F0910A23309711F498DA22C009958111C5
:101D200002C093DA1DC02091EF223091F022809101
:101D3000F1229091F222820F931F8093EF229093D1
:101D4000F0221092F1221092F222E4EDF1E202E090
:101D5000069306C0C03811F4AFDA02C08C2FD5DB71
:101D6000FF91EF91DF91CF91BF91AF919F918F91B3
:101D70007F916F915F914F913F912F911F910F91A3
:101D80000F900FBE0F901F9018950BD021D080E0C0
:101D900090E0089581E08093F42208951092F42257
:101DA000089543E050E064E080E296E00E94A701DD
:101DB00043E050E068E080E296E00E94A7010E94C4
:101DC0001C0187E0E0EAF0E0828378940C947C05C3
:101DD00004EF11E0C0EDD7E00F2EF0E2CF2EF6E0D9
:101DE000DF2EF02D6894FF24F2F8980105C00197CA
:101DF000F1F72150310911F0CE01F9CFF601F78248
:101E000081E490E00E948204F0CFAA1BBB1B51E149
:101E100007C0AA1FBB1FA617B70710F0A61BB70B5A
:101E2000881F991F5A95A9F780959095BC01CD01FF
:101E30000895FB01DC0102C001900D924150504019
:081E4000D8F70895F894FFCFD4
:101E4800CD03EF02D501D701D502FB02CF01D9019D
:101E5800D70100006420182020201C200A20002020
:101E680009024300020100C0320904000001020215
:101E780001000524001001042402020524060001C3
:101E8800052401030107058203400010090401002D
:101E9800020A00000007058102400000070502024F
:101EA800400000001201000202000040EB0304247D
:101EB80000010000030104030904000300000000FE
:101EC8000000000000000000000031322E2E2E45D8
:021ED8004600C2
:00000001FF
